{"abi":[{"type":"function","name":"getModTen","inputs":[{"name":"number","type":"uint256","internalType":"uint256"}],"outputs":[{"name":"","type":"uint256","internalType":"uint256"}],"stateMutability":"pure"},{"type":"function","name":"getModTwo","inputs":[{"name":"number","type":"uint256","internalType":"uint256"}],"outputs":[{"name":"","type":"uint256","internalType":"uint256"}],"stateMutability":"pure"}],"bytecode":{"object":"0x608060405234801561001057600080fd5b5060f28061001f6000396000f3fe6080604052348015600f57600080fd5b506004361060325760003560e01c806357b4ae4d1460375780635f320e9c146058575b600080fd5b604660423660046083565b6067565b60405190815260200160405180910390f35b604660633660046083565b6078565b60006072600a83609b565b92915050565b60006072600283609b565b600060208284031215609457600080fd5b5035919050565b60008260b757634e487b7160e01b600052601260045260246000fd5b50069056fea2646970667358221220ab68c8666359191c7d8e1bb9f57f2ccfdbe8cc400420d501f43c6219c75f51dd64736f6c63430008140033","linkReferences":{}},"methodIdentifiers":{"getModTen(uint256)":"57b4ae4d","getModTwo(uint256)":"5f320e9c"},"id":30}