{"abi":[{"type":"function","name":"revertWithError","inputs":[],"outputs":[],"stateMutability":"pure"},{"type":"function","name":"revertWithRequire","inputs":[],"outputs":[],"stateMutability":"pure"},{"type":"error","name":"ExampleRevert__Error","inputs":[]}],"bytecode":{"object":"0x6080604052348015600f57600080fd5b50606f80601d6000396000f3fe6080604052348015600f57600080fd5b506004361060325760003560e01c806357eca1a514603757806388eea4ed146037575b600080fd5b00fea26469706673582212205ff853bfd75d4db8d137f0c19122ecc0addd5b0e5a508ba1ccbea0c6456255ad64736f6c63430008140033","linkReferences":{}},"methodIdentifiers":{"revertWithError()":"57eca1a5","revertWithRequire()":"88eea4ed"},"id":31}